{
  "fileName": "Momentum.sol",
  "contractName": "Momentum",
  "source": "// SPDX-License-Identifier: MIT\r\npragma solidity >=0.6.12;\r\n\r\nimport \"@openzeppelin/contracts/token/ERC20/ERC20.sol\";\r\nimport \"@openzeppelin/contracts/access/Ownable.sol\";\r\nimport { ABDKMath64x64 as Math } from \"abdk-libraries-solidity/ABDKMath64x64.sol\";\r\n\r\ncontract Momentum is ERC20, Ownable {\r\n    int128 shortMomentum;\r\n    int128 longMomentum;\r\n    int128 SMweight;\r\n    int128 LMweightEx;\r\n    int128 LMweightCo;\r\n\r\n    mapping (address => mapping (address => uint256)) _allowances;\r\n\r\n    bool isBurning = false;\r\n\r\n    constructor(\r\n        uint256 initialSupply, \r\n        uint256 _shortMomentumWeight,\r\n        uint256 _LMweightEx,\r\n        uint256 _LMweightCo,\r\n        uint256 factor,\r\n        uint256 _shortMomentum, \r\n        uint256 _longMomentum\r\n    ) public ERC20(\"Momentum\", \"XMM\") {\r\n        _setupDecimals(10);\r\n        _mint(_msgSender(), initialSupply);\r\n        SMweight = Math.divu(_shortMomentumWeight, factor);\r\n        LMweightEx = Math.divu(_LMweightEx, factor);\r\n        LMweightCo = Math.divu(_LMweightCo, factor);\r\n        shortMomentum = Math.fromUInt(_shortMomentum);\r\n        longMomentum = Math.fromUInt(_longMomentum);\r\n    }\r\n\r\n    function getShortMomentum() external view returns (uint256) {\r\n        return Math.mulu(shortMomentum, 1);\r\n    }\r\n\r\n    function getLongMomentum() external view returns (uint256) {\r\n        return Math.mulu(longMomentum, 1);\r\n    }\r\n\r\n    function getMomentumAndSupply() external view returns (uint256, uint256, uint256) {\r\n        uint256 SM = Math.mulu(shortMomentum, 1);\r\n        uint256 LM = Math.mulu(longMomentum, 1);\r\n        return (SM, LM, totalSupply());\r\n    }\r\n\r\n    function getNewMomentum(int128 amount, int128 SMcopy, int128 LMcopy) internal view returns (int128, int128) {\r\n        int128 LMweight = (amount < SMcopy) ? LMweightCo : LMweightEx;\r\n        int128 LMnew = Math.add(LMcopy, Math.div(Math.sub(amount, LMcopy), LMweight));\r\n        int128 SMnew = Math.add(SMcopy, Math.div(Math.sub(amount, SMcopy), SMweight));\r\n        return (LMnew, SMnew);\r\n    }\r\n\r\n    function getRangeData(int128 LMcopy, int128 SMcopy, int128 LMnew, int128 SMnew) internal pure returns (int128, int128) {\r\n        int128 range = Math.abs(Math.sub(LMcopy, SMcopy));\r\n        int128 newRange = Math.abs(Math.sub(LMnew, SMnew));\r\n        int128 rangeDelta = Math.sub(newRange, range);\r\n        return (rangeDelta, newRange);\r\n    }\r\n\r\n    function getDestabilizingTransferFee(int128 amount, int128 newRange, int128 newLongMomentum) internal pure returns (int128) {\r\n        // If newRange is within 2% of newLongMomentum, apply ~0.75% fee \r\n        // to avoid potential overflow calculations and negative log values\r\n        if (newRange <= Math.div(newLongMomentum, Math.fromUInt(50))) {\r\n            return Math.mul(amount, Math.div(Math.fromUInt(1), Math.fromUInt(133)));\r\n        } else {\r\n            int128 proportion = Math.div(newRange, newLongMomentum);\r\n            int128 rate = Math.add(Math.fromUInt(1), Math.ln(Math.mul(proportion, Math.fromUInt(50))));\r\n            return Math.mul(amount, Math.div(rate, Math.fromUInt(133)));\r\n        }\r\n    }\r\n\r\n    function getTransferFee(uint256 amount256, int128 SMcopy, int128 LMcopy) internal returns (uint256) {\r\n        int128 amount = Math.fromUInt(amount256);\r\n\r\n        // Guard against flood of small transfers manipulating momentum values\r\n        // If transfer size is less than ~0.3% of lower momentum value, charge 5% fee and skip momentum update\r\n        if (SMcopy <= LMcopy) {\r\n            if (amount < Math.div(SMcopy, Math.fromUInt(333))) {\r\n                return Math.mulu(Math.div(amount, Math.fromUInt(20)), 1);\r\n            }\r\n        } else {\r\n            if (amount < Math.div(LMcopy, Math.fromUInt(333))) {\r\n                return Math.mulu(Math.div(amount, Math.fromUInt(20)), 1);\r\n            }\r\n        }\r\n        \r\n        (int128 newLongMomentum, int128 newShortMomentum) = getNewMomentum(amount, SMcopy, LMcopy);\r\n        (int128 rangeDelta, int128 newRange) = getRangeData(LMcopy, SMcopy, newLongMomentum, newShortMomentum);\r\n\r\n        int128 transferFee;\r\n\r\n        if (rangeDelta < Math.fromUInt(0)) {\r\n            transferFee = Math.div(amount, Math.fromUInt(133)); // stabilizing transfer ~0.75% fee\r\n        } else {\r\n            transferFee = getDestabilizingTransferFee(amount, newRange, newLongMomentum);\r\n        }\r\n\r\n        longMomentum = newLongMomentum;\r\n        shortMomentum = newShortMomentum;\r\n\r\n        return Math.mulu(transferFee, 1);\r\n    }\r\n\r\n    function startBurning() public onlyOwner {\r\n        isBurning = true;\r\n        renounceOwnership();\r\n    }\r\n\r\n    function burnAndTransfer(address sender, address recipient, uint256 amount256) internal {\r\n        if (isBurning) {\r\n            uint256 transferFee = getTransferFee(amount256, shortMomentum, longMomentum);\r\n            uint256 adjustedAmount = amount256.sub(transferFee);\r\n            _burn(sender, transferFee);\r\n            _transfer(sender, recipient, adjustedAmount);\r\n        } else {\r\n            _transfer(sender, recipient, amount256);\r\n        }\r\n    }\r\n\r\n    function transfer(address recipient, uint256 amount256) public override returns (bool) {\r\n        burnAndTransfer(_msgSender(), recipient, amount256);\r\n        return true;\r\n    }\r\n\r\n    function transferFrom(address sender, address recipient, uint256 amount256) public override returns (bool) {\r\n        burnAndTransfer(sender, recipient, amount256);\r\n        _approve(sender, _msgSender(), _allowances[sender][_msgSender()].sub(amount256, \"ERC20: transfer amount exceeds allowance\"));\r\n        return true;\r\n    }\r\n\r\n    function allowance(address owner, address spender) public view override returns (uint256) {\r\n        return _allowances[owner][spender];\r\n    }\r\n\r\n    function increaseAllowance(address spender, uint256 addedValue) public override returns (bool) {\r\n        _approve(_msgSender(), spender, _allowances[_msgSender()][spender].add(addedValue));\r\n        return true;\r\n    }\r\n\r\n    function decreaseAllowance(address spender, uint256 subtractedValue) public override returns (bool) {\r\n        _approve(_msgSender(), spender, _allowances[_msgSender()][spender].sub(subtractedValue, \"ERC20: decreased allowance below zero\"));\r\n        return true;\r\n    }\r\n\r\n    function _approve(address owner, address spender, uint256 amount) internal override {\r\n        require(owner != address(0), \"ERC20: approve from the zero address\");\r\n        require(spender != address(0), \"ERC20: approve to the zero address\");\r\n\r\n        _allowances[owner][spender] = amount;\r\n        emit Approval(owner, spender, amount);\r\n    }\r\n}\r\n",
  "sourcePath": "contracts/Momentum.sol",
  "abi": [
    {
      "inputs": [
        {
          "internalType": "uint256",
          "name": "initialSupply",
          "type": "uint256"
        },
        {
          "internalType": "uint256",
          "name": "_shortMomentumWeight",
          "type": "uint256"
        },
        {
          "internalType": "uint256",
          "name": "_LMweightEx",
          "type": "uint256"
        },
        {
          "internalType": "uint256",
          "name": "_LMweightCo",
          "type": "uint256"
        },
        {
          "internalType": "uint256",
          "name": "factor",
          "type": "uint256"
        },
        {
          "internalType": "uint256",
          "name": "_shortMomentum",
          "type": "uint256"
        },
        {
          "internalType": "uint256",
          "name": "_longMomentum",
          "type": "uint256"
        }
      ],
      "stateMutability": "nonpayable",
      "type": "constructor"
    },
    {
      "anonymous": false,
      "inputs": [
        {
          "indexed": true,
          "internalType": "address",
          "name": "owner",
          "type": "address"
        },
        {
          "indexed": true,
          "internalType": "address",
          "name": "spender",
          "type": "address"
        },
        {
          "indexed": false,
          "internalType": "uint256",
          "name": "value",
          "type": "uint256"
        }
      ],
      "name": "Approval",
      "type": "event"
    },
    {
      "anonymous": false,
      "inputs": [
        {
          "indexed": true,
          "internalType": "address",
          "name": "previousOwner",
          "type": "address"
        },
        {
          "indexed": true,
          "internalType": "address",
          "name": "newOwner",
          "type": "address"
        }
      ],
      "name": "OwnershipTransferred",
      "type": "event"
    },
    {
      "anonymous": false,
      "inputs": [
        {
          "indexed": true,
          "internalType": "address",
          "name": "from",
          "type": "address"
        },
        {
          "indexed": true,
          "internalType": "address",
          "name": "to",
          "type": "address"
        },
        {
          "indexed": false,
          "internalType": "uint256",
          "name": "value",
          "type": "uint256"
        }
      ],
      "name": "Transfer",
      "type": "event"
    },
    {
      "inputs": [
        {
          "internalType": "address",
          "name": "owner",
          "type": "address"
        },
        {
          "internalType": "address",
          "name": "spender",
          "type": "address"
        }
      ],
      "name": "allowance",
      "outputs": [
        {
          "internalType": "uint256",
          "name": "",
          "type": "uint256"
        }
      ],
      "stateMutability": "view",
      "type": "function"
    },
    {
      "inputs": [
        {
          "internalType": "address",
          "name": "spender",
          "type": "address"
        },
        {
          "internalType": "uint256",
          "name": "amount",
          "type": "uint256"
        }
      ],
      "name": "approve",
      "outputs": [
        {
          "internalType": "bool",
          "name": "",
          "type": "bool"
        }
      ],
      "stateMutability": "nonpayable",
      "type": "function"
    },
    {
      "inputs": [
        {
          "internalType": "address",
          "name": "account",
          "type": "address"
        }
      ],
      "name": "balanceOf",
      "outputs": [
        {
          "internalType": "uint256",
          "name": "",
          "type": "uint256"
        }
      ],
      "stateMutability": "view",
      "type": "function"
    },
    {
      "inputs": [],
      "name": "decimals",
      "outputs": [
        {
          "internalType": "uint8",
          "name": "",
          "type": "uint8"
        }
      ],
      "stateMutability": "view",
      "type": "function"
    },
    {
      "inputs": [
        {
          "internalType": "address",
          "name": "spender",
          "type": "address"
        },
        {
          "internalType": "uint256",
          "name": "subtractedValue",
          "type": "uint256"
        }
      ],
      "name": "decreaseAllowance",
      "outputs": [
        {
          "internalType": "bool",
          "name": "",
          "type": "bool"
        }
      ],
      "stateMutability": "nonpayable",
      "type": "function"
    },
    {
      "inputs": [],
      "name": "getLongMomentum",
      "outputs": [
        {
          "internalType": "uint256",
          "name": "",
          "type": "uint256"
        }
      ],
      "stateMutability": "view",
      "type": "function"
    },
    {
      "inputs": [],
      "name": "getMomentumAndSupply",
      "outputs": [
        {
          "internalType": "uint256",
          "name": "",
          "type": "uint256"
        },
        {
          "internalType": "uint256",
          "name": "",
          "type": "uint256"
        },
        {
          "internalType": "uint256",
          "name": "",
          "type": "uint256"
        }
      ],
      "stateMutability": "view",
      "type": "function"
    },
    {
      "inputs": [],
      "name": "getShortMomentum",
      "outputs": [
        {
          "internalType": "uint256",
          "name": "",
          "type": "uint256"
        }
      ],
      "stateMutability": "view",
      "type": "function"
    },
    {
      "inputs": [
        {
          "internalType": "address",
          "name": "spender",
          "type": "address"
        },
        {
          "internalType": "uint256",
          "name": "addedValue",
          "type": "uint256"
        }
      ],
      "name": "increaseAllowance",
      "outputs": [
        {
          "internalType": "bool",
          "name": "",
          "type": "bool"
        }
      ],
      "stateMutability": "nonpayable",
      "type": "function"
    },
    {
      "inputs": [],
      "name": "name",
      "outputs": [
        {
          "internalType": "string",
          "name": "",
          "type": "string"
        }
      ],
      "stateMutability": "view",
      "type": "function"
    },
    {
      "inputs": [],
      "name": "owner",
      "outputs": [
        {
          "internalType": "address",
          "name": "",
          "type": "address"
        }
      ],
      "stateMutability": "view",
      "type": "function"
    },
    {
      "inputs": [],
      "name": "renounceOwnership",
      "outputs": [],
      "stateMutability": "nonpayable",
      "type": "function"
    },
    {
      "inputs": [],
      "name": "startBurning",
      "outputs": [],
      "stateMutability": "nonpayable",
      "type": "function"
    },
    {
      "inputs": [],
      "name": "symbol",
      "outputs": [
        {
          "internalType": "string",
          "name": "",
          "type": "string"
        }
      ],
      "stateMutability": "view",
      "type": "function"
    },
    {
      "inputs": [],
      "name": "totalSupply",
      "outputs": [
        {
          "internalType": "uint256",
          "name": "",
          "type": "uint256"
        }
      ],
      "stateMutability": "view",
      "type": "function"
    },
    {
      "inputs": [
        {
          "internalType": "address",
          "name": "recipient",
          "type": "address"
        },
        {
          "internalType": "uint256",
          "name": "amount256",
          "type": "uint256"
        }
      ],
      "name": "transfer",
      "outputs": [
        {
          "internalType": "bool",
          "name": "",
          "type": "bool"
        }
      ],
      "stateMutability": "nonpayable",
      "type": "function"
    },
    {
      "inputs": [
        {
          "internalType": "address",
          "name": "sender",
          "type": "address"
        },
        {
          "internalType": "address",
          "name": "recipient",
          "type": "address"
        },
        {
          "internalType": "uint256",
          "name": "amount256",
          "type": "uint256"
        }
      ],
      "name": "transferFrom",
      "outputs": [
        {
          "internalType": "bool",
          "name": "",
          "type": "bool"
        }
      ],
      "stateMutability": "nonpayable",
      "type": "function"
    },
    {
      "inputs": [
        {
          "internalType": "address",
          "name": "newOwner",
          "type": "address"
        }
      ],
      "name": "transferOwnership",
      "outputs": [],
      "stateMutability": "nonpayable",
      "type": "function"
    }
  ],
  "bytecode": "0x60806040526000600a60006101000a81548160ff0219169083151502179055503480156200002c57600080fd5b5060405162002de438038062002de4833981810160405260e08110156200005257600080fd5b81019080805190602001909291908051906020019092919080519060200190929190805190602001909291908051906020019092919080519060200190929190805190602001909291905050506040518060400160405280600881526020017f4d6f6d656e74756d0000000000000000000000000000000000000000000000008152506040518060400160405280600381526020017f584d4d0000000000000000000000000000000000000000000000000000000000815250816003908051906020019062000123929190620008de565b5080600490805190602001906200013c929190620008de565b506012600560006101000a81548160ff021916908360ff160217905550505060006200016d620003e460201b60201c565b905080600560016101000a81548173ffffffffffffffffffffffffffffffffffffffff021916908373ffffffffffffffffffffffffffffffffffffffff1602179055508073ffffffffffffffffffffffffffffffffffffffff16600073ffffffffffffffffffffffffffffffffffffffff167f8be0079c531659141344cd1fd0a4f28419497f9722a3daafe3b4186f6b6457e060405160405180910390a3506200021e600a620003ec60201b60201c565b6200023f62000232620003e460201b60201c565b886200040a60201b60201c565b620002568684620005e860201b6200104e1760201c565b600760006101000a8154816fffffffffffffffffffffffffffffffff0219169083600f0b6fffffffffffffffffffffffffffffffff160217905550620002a88584620005e860201b6200104e1760201c565b600760106101000a8154816fffffffffffffffffffffffffffffffff0219169083600f0b6fffffffffffffffffffffffffffffffff160217905550620002fa8484620005e860201b6200104e1760201c565b600860006101000a8154816fffffffffffffffffffffffffffffffff0219169083600f0b6fffffffffffffffffffffffffffffffff1602179055506200034b826200065a60201b620010b61760201c565b600660006101000a8154816fffffffffffffffffffffffffffffffff0219169083600f0b6fffffffffffffffffffffffffffffffff1602179055506200039c816200065a60201b620010b61760201c565b600660106101000a8154816fffffffffffffffffffffffffffffffff0219169083600f0b6fffffffffffffffffffffffffffffffff1602179055505050505050505062000984565b600033905090565b80600560006101000a81548160ff021916908360ff16021790555050565b600073ffffffffffffffffffffffffffffffffffffffff168273ffffffffffffffffffffffffffffffffffffffff161415620004ae576040517f08c379a000000000000000000000000000000000000000000000000000000000815260040180806020018281038252601f8152602001807f45524332303a206d696e7420746f20746865207a65726f20616464726573730081525060200191505060405180910390fd5b620004c2600083836200067e60201b60201c565b620004de816002546200068360201b620010d91790919060201c565b6002819055506200053c816000808573ffffffffffffffffffffffffffffffffffffffff1673ffffffffffffffffffffffffffffffffffffffff168152602001908152602001600020546200068360201b620010d91790919060201c565b6000808473ffffffffffffffffffffffffffffffffffffffff1673ffffffffffffffffffffffffffffffffffffffff168152602001908152602001600020819055508173ffffffffffffffffffffffffffffffffffffffff16600073ffffffffffffffffffffffffffffffffffffffff167fddf252ad1be2c89b69c2b068fc378daa952ba7f163c4a11628f55a4df523b3ef836040518082815260200191505060405180910390a35050565b600080821415620005f857600080fd5b60006200060c84846200070c60201b60201c565b90506f7fffffffffffffffffffffffffffffff6fffffffffffffffffffffffffffffffff16816fffffffffffffffffffffffffffffffff1611156200065057600080fd5b8091505092915050565b6000677fffffffffffffff8211156200067257600080fd5b604082901b9050919050565b505050565b60008082840190508381101562000702576040517f08c379a000000000000000000000000000000000000000000000000000000000815260040180806020018281038252601b8152602001807f536166654d6174683a206164646974696f6e206f766572666c6f77000000000081525060200191505060405180910390fd5b8091505092915050565b6000808214156200071c57600080fd5b600077ffffffffffffffffffffffffffffffffffffffffffffffff8411620007555782604085901b816200074c57fe5b049050620008b6565b600060c09050600060c086901c905064010000000081106200077f57602081901c90506020820191505b6201000081106200079857601081901c90506010820191505b6101008110620007b057600881901c90506008820191505b60108110620007c757600481901c90506004820191505b60048110620007de57600281901c90506002820191505b60028110620007ee576001820191505b600160bf830360018703901c018260ff0387901b816200080a57fe5b0492506fffffffffffffffffffffffffffffffff8311156200082b57600080fd5b6000608086901c8402905060006fffffffffffffffffffffffffffffffff871685029050600060c089901c9050600060408a901b90508281101562000871576001820391505b8281039050608084901b9250828110156200088d576001820391505b8281039050608084901c8214620008a057fe5b888181620008aa57fe5b04870196505050505050505b6fffffffffffffffffffffffffffffffff811115620008d457600080fd5b8091505092915050565b828054600181600116156101000203166002900490600052602060002090601f016020900481019282601f106200092157805160ff191683800117855562000952565b8280016001018555821562000952579182015b828111156200095157825182559160200191906001019062000934565b5b50905062000961919062000965565b5090565b5b808211156200098057600081600090555060010162000966565b5090565b61245080620009946000396000f3fe608060405234801561001057600080fd5b50600436106101165760003560e01c806374576db6116100a2578063a9059cbb11610071578063a9059cbb146104ce578063d7a70e0314610532578063dd62ed3e1461055e578063e7142a64146105d6578063f2fde38b146105f457610116565b806374576db6146103a95780638da5cb5b146103b357806395d89b41146103e7578063a457c2d71461046a57610116565b8063313ce567116100e9578063313ce567146102a457806339509351146102c5578063553e46371461032957806370a0823114610347578063715018a61461039f57610116565b806306fdde031461011b578063095ea7b31461019e57806318160ddd1461020257806323b872dd14610220575b600080fd5b610123610638565b6040518080602001828103825283818151815260200191508051906020019080838360005b83811015610163578082015181840152602081019050610148565b50505050905090810190601f1680156101905780820380516001836020036101000a031916815260200191505b509250505060405180910390f35b6101ea600480360360408110156101b457600080fd5b81019080803573ffffffffffffffffffffffffffffffffffffffff169060200190929190803590602001909291905050506106da565b60405180821515815260200191505060405180910390f35b61020a6106f8565b6040518082815260200191505060405180910390f35b61028c6004803603606081101561023657600080fd5b81019080803573ffffffffffffffffffffffffffffffffffffffff169060200190929190803573ffffffffffffffffffffffffffffffffffffffff16906020019092919080359060200190929190505050610702565b60405180821515815260200191505060405180910390f35b6102ac6107db565b604051808260ff16815260200191505060405180910390f35b610311600480360360408110156102db57600080fd5b81019080803573ffffffffffffffffffffffffffffffffffffffff169060200190929190803590602001909291905050506107f2565b60405180821515815260200191505060405180910390f35b6103316108a5565b6040518082815260200191505060405180910390f35b6103896004803603602081101561035d57600080fd5b81019080803573ffffffffffffffffffffffffffffffffffffffff1690602001909291905050506108c6565b6040518082815260200191505060405180910390f35b6103a761090e565b005b6103b1610a99565b005b6103bb610b88565b604051808273ffffffffffffffffffffffffffffffffffffffff16815260200191505060405180910390f35b6103ef610bb2565b6040518080602001828103825283818151815260200191508051906020019080838360005b8381101561042f578082015181840152602081019050610414565b50505050905090810190601f16801561045c5780820380516001836020036101000a031916815260200191505b509250505060405180910390f35b6104b66004803603604081101561048057600080fd5b81019080803573ffffffffffffffffffffffffffffffffffffffff16906020019092919080359060200190929190505050610c54565b60405180821515815260200191505060405180910390f35b61051a600480360360408110156104e457600080fd5b81019080803573ffffffffffffffffffffffffffffffffffffffff16906020019092919080359060200190929190505050610d21565b60405180821515815260200191505060405180910390f35b61053a610d3f565b60405180848152602001838152602001828152602001935050505060405180910390f35b6105c06004803603604081101561057457600080fd5b81019080803573ffffffffffffffffffffffffffffffffffffffff169060200190929190803573ffffffffffffffffffffffffffffffffffffffff169060200190929190505050610d96565b6040518082815260200191505060405180910390f35b6105de610e1d565b6040518082815260200191505060405180910390f35b6106366004803603602081101561060a57600080fd5b81019080803573ffffffffffffffffffffffffffffffffffffffff169060200190929190505050610e3e565b005b606060038054600181600116156101000203166002900480601f0160208091040260200160405190810160405280929190818152602001828054600181600116156101000203166002900480156106d05780601f106106a5576101008083540402835291602001916106d0565b820191906000526020600020905b8154815290600101906020018083116106b357829003601f168201915b5050505050905090565b60006106ee6106e7611161565b8484611169565b6001905092915050565b6000600254905090565b600061070f848484611360565b6107d08461071b611161565b6107cb8560405180606001604052806028815260200161236460289139600960008b73ffffffffffffffffffffffffffffffffffffffff1673ffffffffffffffffffffffffffffffffffffffff1681526020019081526020016000206000610781611161565b73ffffffffffffffffffffffffffffffffffffffff1673ffffffffffffffffffffffffffffffffffffffff168152602001908152602001600020546113e69092919063ffffffff16565b611169565b600190509392505050565b6000600560009054906101000a900460ff16905090565b600061089b6107ff611161565b846108968560096000610810611161565b73ffffffffffffffffffffffffffffffffffffffff1673ffffffffffffffffffffffffffffffffffffffff16815260200190815260200160002060008973ffffffffffffffffffffffffffffffffffffffff1673ffffffffffffffffffffffffffffffffffffffff168152602001908152602001600020546110d990919063ffffffff16565b611169565b6001905092915050565b60006108c1600660009054906101000a9004600f0b60016114a6565b905090565b60008060008373ffffffffffffffffffffffffffffffffffffffff1673ffffffffffffffffffffffffffffffffffffffff168152602001908152602001600020549050919050565b610916611161565b73ffffffffffffffffffffffffffffffffffffffff16600560019054906101000a900473ffffffffffffffffffffffffffffffffffffffff1673ffffffffffffffffffffffffffffffffffffffff16146109d8576040517f08c379a00000000000000000000000000000000000000000000000000000000081526004018080602001828103825260208152602001807f4f776e61626c653a2063616c6c6572206973206e6f7420746865206f776e657281525060200191505060405180910390fd5b600073ffffffffffffffffffffffffffffffffffffffff16600560019054906101000a900473ffffffffffffffffffffffffffffffffffffffff1673ffffffffffffffffffffffffffffffffffffffff167f8be0079c531659141344cd1fd0a4f28419497f9722a3daafe3b4186f6b6457e060405160405180910390a36000600560016101000a81548173ffffffffffffffffffffffffffffffffffffffff021916908373ffffffffffffffffffffffffffffffffffffffff160217905550565b610aa1611161565b73ffffffffffffffffffffffffffffffffffffffff16600560019054906101000a900473ffffffffffffffffffffffffffffffffffffffff1673ffffffffffffffffffffffffffffffffffffffff1614610b63576040517f08c379a00000000000000000000000000000000000000000000000000000000081526004018080602001828103825260208152602001807f4f776e61626c653a2063616c6c6572206973206e6f7420746865206f776e657281525060200191505060405180910390fd5b6001600a60006101000a81548160ff021916908315150217905550610b8661090e565b565b6000600560019054906101000a900473ffffffffffffffffffffffffffffffffffffffff16905090565b606060048054600181600116156101000203166002900480601f016020809104026020016040519081016040528092919081815260200182805460018160011615610100020316600290048015610c4a5780601f10610c1f57610100808354040283529160200191610c4a565b820191906000526020600020905b815481529060010190602001808311610c2d57829003601f168201915b5050505050905090565b6000610d17610c61611161565b84610d12856040518060600160405280602581526020016123f66025913960096000610c8b611161565b73ffffffffffffffffffffffffffffffffffffffff1673ffffffffffffffffffffffffffffffffffffffff16815260200190815260200160002060008a73ffffffffffffffffffffffffffffffffffffffff1673ffffffffffffffffffffffffffffffffffffffff168152602001908152602001600020546113e69092919063ffffffff16565b611169565b6001905092915050565b6000610d35610d2e611161565b8484611360565b6001905092915050565b600080600080610d5f600660009054906101000a9004600f0b60016114a6565b90506000610d7d600660109054906101000a9004600f0b60016114a6565b90508181610d896106f8565b9450945094505050909192565b6000600960008473ffffffffffffffffffffffffffffffffffffffff1673ffffffffffffffffffffffffffffffffffffffff16815260200190815260200160002060008373ffffffffffffffffffffffffffffffffffffffff1673ffffffffffffffffffffffffffffffffffffffff16815260200190815260200160002054905092915050565b6000610e39600660109054906101000a9004600f0b60016114a6565b905090565b610e46611161565b73ffffffffffffffffffffffffffffffffffffffff16600560019054906101000a900473ffffffffffffffffffffffffffffffffffffffff1673ffffffffffffffffffffffffffffffffffffffff1614610f08576040517f08c379a00000000000000000000000000000000000000000000000000000000081526004018080602001828103825260208152602001807f4f776e61626c653a2063616c6c6572206973206e6f7420746865206f776e657281525060200191505060405180910390fd5b600073ffffffffffffffffffffffffffffffffffffffff168173ffffffffffffffffffffffffffffffffffffffff161415610f8e576040517f08c379a00000000000000000000000000000000000000000000000000000000081526004018080602001828103825260268152602001806122f66026913960400191505060405180910390fd5b8073ffffffffffffffffffffffffffffffffffffffff16600560019054906101000a900473ffffffffffffffffffffffffffffffffffffffff1673ffffffffffffffffffffffffffffffffffffffff167f8be0079c531659141344cd1fd0a4f28419497f9722a3daafe3b4186f6b6457e060405160405180910390a380600560016101000a81548173ffffffffffffffffffffffffffffffffffffffff021916908373ffffffffffffffffffffffffffffffffffffffff16021790555050565b60008082141561105d57600080fd5b60006110698484611561565b90506f7fffffffffffffffffffffffffffffff6fffffffffffffffffffffffffffffffff16816fffffffffffffffffffffffffffffffff1611156110ac57600080fd5b8091505092915050565b6000677fffffffffffffff8211156110cd57600080fd5b604082901b9050919050565b600080828401905083811015611157576040517f08c379a000000000000000000000000000000000000000000000000000000000815260040180806020018281038252601b8152602001807f536166654d6174683a206164646974696f6e206f766572666c6f77000000000081525060200191505060405180910390fd5b8091505092915050565b600033905090565b600073ffffffffffffffffffffffffffffffffffffffff168373ffffffffffffffffffffffffffffffffffffffff1614156111ef576040517f08c379a00000000000000000000000000000000000000000000000000000000081526004018080602001828103825260248152602001806123d26024913960400191505060405180910390fd5b600073ffffffffffffffffffffffffffffffffffffffff168273ffffffffffffffffffffffffffffffffffffffff161415611275576040517f08c379a000000000000000000000000000000000000000000000000000000000815260040180806020018281038252602281526020018061231c6022913960400191505060405180910390fd5b80600960008573ffffffffffffffffffffffffffffffffffffffff1673ffffffffffffffffffffffffffffffffffffffff16815260200190815260200160002060008473ffffffffffffffffffffffffffffffffffffffff1673ffffffffffffffffffffffffffffffffffffffff168152602001908152602001600020819055508173ffffffffffffffffffffffffffffffffffffffff168373ffffffffffffffffffffffffffffffffffffffff167f8c5be1e5ebec7d5bd14f71427d1e84f3dd0314c0f7b2291e5b200ac8c7c3b925836040518082815260200191505060405180910390a3505050565b600a60009054906101000a900460ff16156113d55760006113a082600660009054906101000a9004600f0b600660109054906101000a9004600f0b611722565b905060006113b782846118c890919063ffffffff16565b90506113c38583611912565b6113ce858583611ad6565b50506113e1565b6113e0838383611ad6565b5b505050565b6000838311158290611493576040517f08c379a00000000000000000000000000000000000000000000000000000000081526004018080602001828103825283818151815260200191508051906020019080838360005b8381101561145857808201518184015260208101905061143d565b50505050905090810190601f1680156114855780820380516001836020036101000a031916815260200191505b509250505060405180910390fd5b5060008385039050809150509392505050565b6000808214156114b9576000905061155b565b600083600f0b12156114ca57600080fd5b600060406fffffffffffffffffffffffffffffffff841685600f0b02901c90506000608084901c85600f0b02905077ffffffffffffffffffffffffffffffffffffffffffffffff81111561151d57600080fd5b604081901b9050817fffffffffffffffffffffffffffffffffffffffffffffffffffffffffffffffff0381111561155357600080fd5b818101925050505b92915050565b60008082141561157057600080fd5b600077ffffffffffffffffffffffffffffffffffffffffffffffff84116115a65782604085901b8161159e57fe5b0490506116fb565b600060c09050600060c086901c905064010000000081106115cf57602081901c90506020820191505b6201000081106115e757601081901c90506010820191505b61010081106115fe57600881901c90506008820191505b6010811061161457600481901c90506004820191505b6004811061162a57600281901c90506002820191505b60028110611639576001820191505b600160bf830360018703901c018260ff0387901b8161165457fe5b0492506fffffffffffffffffffffffffffffffff83111561167457600080fd5b6000608086901c8402905060006fffffffffffffffffffffffffffffffff871685029050600060c089901c9050600060408a901b9050828110156116b9576001820391505b8281039050608084901b9250828110156116d4576001820391505b8281039050608084901c82146116e657fe5b8881816116ef57fe5b04870196505050505050505b6fffffffffffffffffffffffffffffffff81111561171857600080fd5b8091505092915050565b60008061172e856110b6565b905082600f0b84600f0b13611788576117518461174c61014d6110b6565b611d97565b600f0b81600f0b12156117835761177b6117748261176f60146110b6565b611d97565b60016114a6565b9150506118c1565b6117cf565b61179c8361179761014d6110b6565b611d97565b600f0b81600f0b12156117ce576117c66117bf826117ba60146110b6565b611d97565b60016114a6565b9150506118c1565b5b6000806117dd838787611e1a565b915091506000806117f087898686611eb4565b91509150600061180060006110b6565b600f0b83600f0b1215611827576118208661181b60856110b6565b611d97565b9050611835565b611832868387611f03565b90505b84600660106101000a8154816fffffffffffffffffffffffffffffffff0219169083600f0b6fffffffffffffffffffffffffffffffff16021790555083600660006101000a8154816fffffffffffffffffffffffffffffffff0219169083600f0b6fffffffffffffffffffffffffffffffff1602179055506118b88160016114a6565b96505050505050505b9392505050565b600061190a83836040518060400160405280601e81526020017f536166654d6174683a207375627472616374696f6e206f766572666c6f7700008152506113e6565b905092915050565b600073ffffffffffffffffffffffffffffffffffffffff168273ffffffffffffffffffffffffffffffffffffffff161415611998576040517f08c379a000000000000000000000000000000000000000000000000000000000815260040180806020018281038252602181526020018061238c6021913960400191505060405180910390fd5b6119a482600083611fb7565b611a0f816040518060600160405280602281526020016122d4602291396000808673ffffffffffffffffffffffffffffffffffffffff1673ffffffffffffffffffffffffffffffffffffffff168152602001908152602001600020546113e69092919063ffffffff16565b6000808473ffffffffffffffffffffffffffffffffffffffff1673ffffffffffffffffffffffffffffffffffffffff16815260200190815260200160002081905550611a66816002546118c890919063ffffffff16565b600281905550600073ffffffffffffffffffffffffffffffffffffffff168273ffffffffffffffffffffffffffffffffffffffff167fddf252ad1be2c89b69c2b068fc378daa952ba7f163c4a11628f55a4df523b3ef836040518082815260200191505060405180910390a35050565b600073ffffffffffffffffffffffffffffffffffffffff168373ffffffffffffffffffffffffffffffffffffffff161415611b5c576040517f08c379a00000000000000000000000000000000000000000000000000000000081526004018080602001828103825260258152602001806123ad6025913960400191505060405180910390fd5b600073ffffffffffffffffffffffffffffffffffffffff168273ffffffffffffffffffffffffffffffffffffffff161415611be2576040517f08c379a00000000000000000000000000000000000000000000000000000000081526004018080602001828103825260238152602001806122b16023913960400191505060405180910390fd5b611bed838383611fb7565b611c588160405180606001604052806026815260200161233e602691396000808773ffffffffffffffffffffffffffffffffffffffff1673ffffffffffffffffffffffffffffffffffffffff168152602001908152602001600020546113e69092919063ffffffff16565b6000808573ffffffffffffffffffffffffffffffffffffffff1673ffffffffffffffffffffffffffffffffffffffff16815260200190815260200160002081905550611ceb816000808573ffffffffffffffffffffffffffffffffffffffff1673ffffffffffffffffffffffffffffffffffffffff168152602001908152602001600020546110d990919063ffffffff16565b6000808473ffffffffffffffffffffffffffffffffffffffff1673ffffffffffffffffffffffffffffffffffffffff168152602001908152602001600020819055508173ffffffffffffffffffffffffffffffffffffffff168373ffffffffffffffffffffffffffffffffffffffff167fddf252ad1be2c89b69c2b068fc378daa952ba7f163c4a11628f55a4df523b3ef836040518082815260200191505060405180910390a3505050565b60008082600f0b1415611da957600080fd5b600082600f0b604085600f0b901b81611dbe57fe5b0590507fffffffffffffffffffffffffffffffff80000000000000000000000000000000600f0b8112158015611e0757506f7fffffffffffffffffffffffffffffff600f0b8113155b611e1057600080fd5b8091505092915050565b600080600084600f0b86600f0b12611e4157600760109054906101000a9004600f0b611e52565b600860009054906101000a9004600f0b5b90506000611e7285611e6d611e678a89611fbc565b85611d97565b612023565b90506000611ea187611e9c611e878b8b611fbc565b600760009054906101000a9004600f0b611d97565b612023565b9050818194509450505050935093915050565b6000806000611ecb611ec68888611fbc565b61208a565b90506000611ee1611edc8787611fbc565b61208a565b90506000611eef8284611fbc565b905080829450945050505094509492505050565b6000611f1882611f1360326110b6565b611d97565b600f0b83600f0b13611f5057611f4984611f44611f3560016110b6565b611f3f60856110b6565b611d97565b6120dc565b9050611fb0565b6000611f5c8484611d97565b90506000611f8d611f6d60016110b6565b611f88611f8385611f7e60326110b6565b6120dc565b612147565b612023565b9050611fab86611fa683611fa160856110b6565b611d97565b6120dc565b925050505b9392505050565b505050565b60008082600f0b84600f0b0390507fffffffffffffffffffffffffffffffff80000000000000000000000000000000600f0b811215801561201057506f7fffffffffffffffffffffffffffffff600f0b8113155b61201957600080fd5b8091505092915050565b60008082600f0b84600f0b0190507fffffffffffffffffffffffffffffffff80000000000000000000000000000000600f0b811215801561207757506f7fffffffffffffffffffffffffffffff600f0b8113155b61208057600080fd5b8091505092915050565b60007fffffffffffffffffffffffffffffffff80000000000000000000000000000000600f0b82600f0b14156120bf57600080fd5b600082600f0b126120d057816120d5565b816000035b9050919050565b600080604083600f0b85600f0b02901d90507fffffffffffffffffffffffffffffffff80000000000000000000000000000000600f0b811215801561213457506f7fffffffffffffffffffffffffffffff600f0b8113155b61213d57600080fd5b8091505092915050565b60008082600f0b1361215857600080fd5b60806fb17217f7d1cf79abc9e3b39803f2f6af61217484612181565b600f0b02901c9050919050565b60008082600f0b1361219257600080fd5b60008083600f0b90506801000000000000000081126121b957604081901d90506040820191505b64010000000081126121d357602081901d90506020820191505b6201000081126121eb57601081901d90506010820191505b610100811261220257600881901d90506008820191505b6010811261221857600481901d90506004820191505b6004811261222e57600281901d90506002820191505b6002811261223d576001820191505b60006040808403901b9050600083607f0386600f0b600082121561225d57fe5b901b9050600067800000000000000090505b60008113156122a3578182029150600060ff83901c905080607f0183901c92508082028401935050600181901d905061226f565b508194505050505091905056fe45524332303a207472616e7366657220746f20746865207a65726f206164647265737345524332303a206275726e20616d6f756e7420657863656564732062616c616e63654f776e61626c653a206e6577206f776e657220697320746865207a65726f206164647265737345524332303a20617070726f766520746f20746865207a65726f206164647265737345524332303a207472616e7366657220616d6f756e7420657863656564732062616c616e636545524332303a207472616e7366657220616d6f756e74206578636565647320616c6c6f77616e636545524332303a206275726e2066726f6d20746865207a65726f206164647265737345524332303a207472616e736665722066726f6d20746865207a65726f206164647265737345524332303a20617070726f76652066726f6d20746865207a65726f206164647265737345524332303a2064656372656173656420616c6c6f77616e63652062656c6f77207a65726fa2646970667358221220ae3ab1acab4a6a7b5465e9a1db9c3e425a43d4e681c312ba2be7906e37a8383864736f6c634300060c0033",
  "compiler": {
    "name": "solc",
    "version": "0.6.12+commit.27d51765.Emscripten.clang",
    "optimizer": {
      "enabled": false,
      "runs": 200
    },
    "evmVersion": "petersburg"
  }
}